{
  "_format": "hh-sol-artifact-1",
  "contractName": "SupplyChain",
  "sourceName": "contracts/SupplyChain.sol",
  "abi": [
    {
      "anonymous": false,
      "inputs": [
        {
          "indexed": false,
          "internalType": "uint256",
          "name": "id",
          "type": "uint256"
        },
        {
          "indexed": false,
          "internalType": "string",
          "name": "name",
          "type": "string"
        },
        {
          "indexed": false,
          "internalType": "address",
          "name": "owner",
          "type": "address"
        }
      ],
      "name": "ProductCreated",
      "type": "event"
    },
    {
      "anonymous": false,
      "inputs": [
        {
          "indexed": false,
          "internalType": "uint256",
          "name": "id",
          "type": "uint256"
        },
        {
          "indexed": false,
          "internalType": "address",
          "name": "from",
          "type": "address"
        },
        {
          "indexed": false,
          "internalType": "address",
          "name": "to",
          "type": "address"
        },
        {
          "indexed": false,
          "internalType": "enum SupplyChain.Status",
          "name": "status",
          "type": "uint8"
        }
      ],
      "name": "ProductTransferred",
      "type": "event"
    },
    {
      "inputs": [
        {
          "internalType": "string",
          "name": "_name",
          "type": "string"
        },
        {
          "internalType": "string",
          "name": "_batchId",
          "type": "string"
        },
        {
          "internalType": "string",
          "name": "_ipfsHash",
          "type": "string"
        }
      ],
      "name": "createProduct",
      "outputs": [
        {
          "internalType": "uint256",
          "name": "",
          "type": "uint256"
        }
      ],
      "stateMutability": "nonpayable",
      "type": "function"
    },
    {
      "inputs": [
        {
          "internalType": "uint256",
          "name": "_id",
          "type": "uint256"
        }
      ],
      "name": "getHistory",
      "outputs": [
        {
          "components": [
            {
              "internalType": "address",
              "name": "owner",
              "type": "address"
            },
            {
              "internalType": "enum SupplyChain.Status",
              "name": "status",
              "type": "uint8"
            },
            {
              "internalType": "uint256",
              "name": "timestamp",
              "type": "uint256"
            }
          ],
          "internalType": "struct SupplyChain.History[]",
          "name": "",
          "type": "tuple[]"
        }
      ],
      "stateMutability": "view",
      "type": "function"
    },
    {
      "inputs": [
        {
          "internalType": "uint256",
          "name": "_id",
          "type": "uint256"
        }
      ],
      "name": "getProduct",
      "outputs": [
        {
          "components": [
            {
              "internalType": "uint256",
              "name": "id",
              "type": "uint256"
            },
            {
              "internalType": "string",
              "name": "name",
              "type": "string"
            },
            {
              "internalType": "string",
              "name": "batchId",
              "type": "string"
            },
            {
              "internalType": "address",
              "name": "currentOwner",
              "type": "address"
            },
            {
              "internalType": "enum SupplyChain.Status",
              "name": "status",
              "type": "uint8"
            },
            {
              "internalType": "uint256",
              "name": "timestamp",
              "type": "uint256"
            },
            {
              "internalType": "string",
              "name": "ipfsHash",
              "type": "string"
            }
          ],
          "internalType": "struct SupplyChain.Product",
          "name": "",
          "type": "tuple"
        }
      ],
      "stateMutability": "view",
      "type": "function"
    },
    {
      "inputs": [],
      "name": "productCount",
      "outputs": [
        {
          "internalType": "uint256",
          "name": "",
          "type": "uint256"
        }
      ],
      "stateMutability": "view",
      "type": "function"
    },
    {
      "inputs": [
        {
          "internalType": "uint256",
          "name": "",
          "type": "uint256"
        },
        {
          "internalType": "uint256",
          "name": "",
          "type": "uint256"
        }
      ],
      "name": "productHistory",
      "outputs": [
        {
          "internalType": "address",
          "name": "owner",
          "type": "address"
        },
        {
          "internalType": "enum SupplyChain.Status",
          "name": "status",
          "type": "uint8"
        },
        {
          "internalType": "uint256",
          "name": "timestamp",
          "type": "uint256"
        }
      ],
      "stateMutability": "view",
      "type": "function"
    },
    {
      "inputs": [
        {
          "internalType": "uint256",
          "name": "",
          "type": "uint256"
        }
      ],
      "name": "products",
      "outputs": [
        {
          "internalType": "uint256",
          "name": "id",
          "type": "uint256"
        },
        {
          "internalType": "string",
          "name": "name",
          "type": "string"
        },
        {
          "internalType": "string",
          "name": "batchId",
          "type": "string"
        },
        {
          "internalType": "address",
          "name": "currentOwner",
          "type": "address"
        },
        {
          "internalType": "enum SupplyChain.Status",
          "name": "status",
          "type": "uint8"
        },
        {
          "internalType": "uint256",
          "name": "timestamp",
          "type": "uint256"
        },
        {
          "internalType": "string",
          "name": "ipfsHash",
          "type": "string"
        }
      ],
      "stateMutability": "view",
      "type": "function"
    },
    {
      "inputs": [
        {
          "internalType": "uint256",
          "name": "_id",
          "type": "uint256"
        },
        {
          "internalType": "address",
          "name": "_newOwner",
          "type": "address"
        },
        {
          "internalType": "enum SupplyChain.Status",
          "name": "_status",
          "type": "uint8"
        }
      ],
      "name": "transferProduct",
      "outputs": [],
      "stateMutability": "nonpayable",
      "type": "function"
    }
  ],
  "bytecode": "0x6080604052348015600f57600080fd5b50611a968061001f6000396000f3fe608060405234801561001057600080fd5b506004361061007d5760003560e01c8063b9db15b41161005b578063b9db15b414610106578063c8691b2a14610136578063d768468b14610166578063e0f6ef87146101965761007d565b80631730e34c146100825780633a7d23761461009e5780637acc0b20146100d0575b600080fd5b61009c60048036038101906100979190610ec3565b6101b4565b005b6100b860048036038101906100b39190610f16565b6104d2565b6040516100c793929190610feb565b60405180910390f35b6100ea60048036038101906100e59190611022565b610546565b6040516100fd97969594939291906110df565b60405180910390f35b610120600480360381019061011b9190611022565b61074d565b60405161012d9190611284565b60405180910390f35b610150600480360381019061014b9190611022565b6109d4565b60405161015d9190611397565b60405180910390f35b610180600480360381019061017b91906114ee565b610ae1565b60405161018d9190611595565b60405180910390f35b61019e610d8b565b6040516101ab9190611595565b60405180910390f35b6000831180156101c657506002548311155b610205576040517f08c379a00000000000000000000000000000000000000000000000000000000081526004016101fc906115fc565b60405180910390fd5b3373ffffffffffffffffffffffffffffffffffffffff1660008085815260200190815260200160002060030160009054906101000a900473ffffffffffffffffffffffffffffffffffffffff1673ffffffffffffffffffffffffffffffffffffffff16146102a8576040517f08c379a000000000000000000000000000000000000000000000000000000000815260040161029f90611668565b60405180910390fd5b600080600085815260200190815260200160002060030160009054906101000a900473ffffffffffffffffffffffffffffffffffffffff1690508260008086815260200190815260200160002060030160006101000a81548173ffffffffffffffffffffffffffffffffffffffff021916908373ffffffffffffffffffffffffffffffffffffffff1602179055508160008086815260200190815260200160002060030160146101000a81548160ff0219169083600381111561036e5761036d610f65565b5b021790555042600080868152602001908152602001600020600401819055506001600085815260200190815260200160002060405180606001604052808573ffffffffffffffffffffffffffffffffffffffff1681526020018460038111156103da576103d9610f65565b5b815260200142815250908060018154018082558091505060019003906000526020600020906002020160009091909190915060008201518160000160006101000a81548173ffffffffffffffffffffffffffffffffffffffff021916908373ffffffffffffffffffffffffffffffffffffffff16021790555060208201518160000160146101000a81548160ff0219169083600381111561047e5761047d610f65565b5b02179055506040820151816001015550507fb8ec5bed6096f539515867ed6d75eac9421558314f8dcb1349f7c60978cad298848285856040516104c49493929190611688565b60405180910390a150505050565b600160205281600052604060002081815481106104ee57600080fd5b9060005260206000209060020201600091509150508060000160009054906101000a900473ffffffffffffffffffffffffffffffffffffffff16908060000160149054906101000a900460ff16908060010154905083565b600060205280600052604060002060009150905080600001549080600101805461056f906116fc565b80601f016020809104026020016040519081016040528092919081815260200182805461059b906116fc565b80156105e85780601f106105bd576101008083540402835291602001916105e8565b820191906000526020600020905b8154815290600101906020018083116105cb57829003601f168201915b5050505050908060020180546105fd906116fc565b80601f0160208091040260200160405190810160405280929190818152602001828054610629906116fc565b80156106765780601f1061064b57610100808354040283529160200191610676565b820191906000526020600020905b81548152906001019060200180831161065957829003601f168201915b5050505050908060030160009054906101000a900473ffffffffffffffffffffffffffffffffffffffff16908060030160149054906101000a900460ff16908060040154908060050180546106ca906116fc565b80601f01602080910402602001604051908101604052809291908181526020018280546106f6906116fc565b80156107435780601f1061071857610100808354040283529160200191610743565b820191906000526020600020905b81548152906001019060200180831161072657829003601f168201915b5050505050905087565b610755610d91565b6000808381526020019081526020016000206040518060e00160405290816000820154815260200160018201805461078c906116fc565b80601f01602080910402602001604051908101604052809291908181526020018280546107b8906116fc565b80156108055780601f106107da57610100808354040283529160200191610805565b820191906000526020600020905b8154815290600101906020018083116107e857829003601f168201915b5050505050815260200160028201805461081e906116fc565b80601f016020809104026020016040519081016040528092919081815260200182805461084a906116fc565b80156108975780601f1061086c57610100808354040283529160200191610897565b820191906000526020600020905b81548152906001019060200180831161087a57829003601f168201915b505050505081526020016003820160009054906101000a900473ffffffffffffffffffffffffffffffffffffffff1673ffffffffffffffffffffffffffffffffffffffff1673ffffffffffffffffffffffffffffffffffffffff1681526020016003820160149054906101000a900460ff16600381111561091b5761091a610f65565b5b600381111561092d5761092c610f65565b5b81526020016004820154815260200160058201805461094b906116fc565b80601f0160208091040260200160405190810160405280929190818152602001828054610977906116fc565b80156109c45780601f10610999576101008083540402835291602001916109c4565b820191906000526020600020905b8154815290600101906020018083116109a757829003601f168201915b5050505050815250509050919050565b606060016000838152602001908152602001600020805480602002602001604051908101604052809291908181526020016000905b82821015610ad657838290600052602060002090600202016040518060600160405290816000820160009054906101000a900473ffffffffffffffffffffffffffffffffffffffff1673ffffffffffffffffffffffffffffffffffffffff1673ffffffffffffffffffffffffffffffffffffffff1681526020016000820160149054906101000a900460ff166003811115610aa757610aa6610f65565b5b6003811115610ab957610ab8610f65565b5b815260200160018201548152505081526020019060010190610a09565b505050509050919050565b600060026000815480929190610af69061175c565b91905055506040518060e0016040528060025481526020018581526020018481526020013373ffffffffffffffffffffffffffffffffffffffff16815260200160006003811115610b4a57610b49610f65565b5b8152602001428152602001838152506000806002548152602001908152602001600020600082015181600001556020820151816001019081610b8c9190611950565b506040820151816002019081610ba29190611950565b5060608201518160030160006101000a81548173ffffffffffffffffffffffffffffffffffffffff021916908373ffffffffffffffffffffffffffffffffffffffff16021790555060808201518160030160146101000a81548160ff02191690836003811115610c1557610c14610f65565b5b021790555060a0820151816004015560c0820151816005019081610c399190611950565b5090505060016000600254815260200190815260200160002060405180606001604052803373ffffffffffffffffffffffffffffffffffffffff16815260200160006003811115610c8d57610c8c610f65565b5b815260200142815250908060018154018082558091505060019003906000526020600020906002020160009091909190915060008201518160000160006101000a81548173ffffffffffffffffffffffffffffffffffffffff021916908373ffffffffffffffffffffffffffffffffffffffff16021790555060208201518160000160146101000a81548160ff02191690836003811115610d3157610d30610f65565b5b02179055506040820151816001015550507faf6ffb6277511513e7d579327cc1fc57f0266df2fb11a60b13487b8c9cd2c3886002548533604051610d7793929190611a22565b60405180910390a160025490509392505050565b60025481565b6040518060e00160405280600081526020016060815260200160608152602001600073ffffffffffffffffffffffffffffffffffffffff16815260200160006003811115610de257610de1610f65565b5b815260200160008152602001606081525090565b6000604051905090565b600080fd5b600080fd5b6000819050919050565b610e1d81610e0a565b8114610e2857600080fd5b50565b600081359050610e3a81610e14565b92915050565b600073ffffffffffffffffffffffffffffffffffffffff82169050919050565b6000610e6b82610e40565b9050919050565b610e7b81610e60565b8114610e8657600080fd5b50565b600081359050610e9881610e72565b92915050565b60048110610eab57600080fd5b50565b600081359050610ebd81610e9e565b92915050565b600080600060608486031215610edc57610edb610e00565b5b6000610eea86828701610e2b565b9350506020610efb86828701610e89565b9250506040610f0c86828701610eae565b9150509250925092565b60008060408385031215610f2d57610f2c610e00565b5b6000610f3b85828601610e2b565b9250506020610f4c85828601610e2b565b9150509250929050565b610f5f81610e60565b82525050565b7f4e487b7100000000000000000000000000000000000000000000000000000000600052602160045260246000fd5b60048110610fa557610fa4610f65565b5b50565b6000819050610fb682610f94565b919050565b6000610fc682610fa8565b9050919050565b610fd681610fbb565b82525050565b610fe581610e0a565b82525050565b60006060820190506110006000830186610f56565b61100d6020830185610fcd565b61101a6040830184610fdc565b949350505050565b60006020828403121561103857611037610e00565b5b600061104684828501610e2b565b91505092915050565b600081519050919050565b600082825260208201905092915050565b60005b8381101561108957808201518184015260208101905061106e565b60008484015250505050565b6000601f19601f8301169050919050565b60006110b18261104f565b6110bb818561105a565b93506110cb81856020860161106b565b6110d481611095565b840191505092915050565b600060e0820190506110f4600083018a610fdc565b818103602083015261110681896110a6565b9050818103604083015261111a81886110a6565b90506111296060830187610f56565b6111366080830186610fcd565b61114360a0830185610fdc565b81810360c083015261115581846110a6565b905098975050505050505050565b61116c81610e0a565b82525050565b600082825260208201905092915050565b600061118e8261104f565b6111988185611172565b93506111a881856020860161106b565b6111b181611095565b840191505092915050565b6111c581610e60565b82525050565b6111d481610fbb565b82525050565b600060e0830160008301516111f26000860182611163565b506020830151848203602086015261120a8282611183565b915050604083015184820360408601526112248282611183565b915050606083015161123960608601826111bc565b50608083015161124c60808601826111cb565b5060a083015161125f60a0860182611163565b5060c083015184820360c08601526112778282611183565b9150508091505092915050565b6000602082019050818103600083015261129e81846111da565b905092915050565b600081519050919050565b600082825260208201905092915050565b6000819050602082019050919050565b6060820160008201516112e860008501826111bc565b5060208201516112fb60208501826111cb565b50604082015161130e6040850182611163565b50505050565b600061132083836112d2565b60608301905092915050565b6000602082019050919050565b6000611344826112a6565b61134e81856112b1565b9350611359836112c2565b8060005b8381101561138a5781516113718882611314565b975061137c8361132c565b92505060018101905061135d565b5085935050505092915050565b600060208201905081810360008301526113b18184611339565b905092915050565b600080fd5b600080fd5b7f4e487b7100000000000000000000000000000000000000000000000000000000600052604160045260246000fd5b6113fb82611095565b810181811067ffffffffffffffff8211171561141a576114196113c3565b5b80604052505050565b600061142d610df6565b905061143982826113f2565b919050565b600067ffffffffffffffff821115611459576114586113c3565b5b61146282611095565b9050602081019050919050565b82818337600083830152505050565b600061149161148c8461143e565b611423565b9050828152602081018484840111156114ad576114ac6113be565b5b6114b884828561146f565b509392505050565b600082601f8301126114d5576114d46113b9565b5b81356114e584826020860161147e565b91505092915050565b60008060006060848603121561150757611506610e00565b5b600084013567ffffffffffffffff81111561152557611524610e05565b5b611531868287016114c0565b935050602084013567ffffffffffffffff81111561155257611551610e05565b5b61155e868287016114c0565b925050604084013567ffffffffffffffff81111561157f5761157e610e05565b5b61158b868287016114c0565b9150509250925092565b60006020820190506115aa6000830184610fdc565b92915050565b7f496e76616c69642070726f647563742049440000000000000000000000000000600082015250565b60006115e660128361105a565b91506115f1826115b0565b602082019050919050565b60006020820190508181036000830152611615816115d9565b9050919050565b7f4e6f7420746865206f776e657200000000000000000000000000000000000000600082015250565b6000611652600d8361105a565b915061165d8261161c565b602082019050919050565b6000602082019050818103600083015261168181611645565b9050919050565b600060808201905061169d6000830187610fdc565b6116aa6020830186610f56565b6116b76040830185610f56565b6116c46060830184610fcd565b95945050505050565b7f4e487b7100000000000000000000000000000000000000000000000000000000600052602260045260246000fd5b6000600282049050600182168061171457607f821691505b602082108103611727576117266116cd565b5b50919050565b7f4e487b7100000000000000000000000000000000000000000000000000000000600052601160045260246000fd5b600061176782610e0a565b91507fffffffffffffffffffffffffffffffffffffffffffffffffffffffffffffffff82036117995761179861172d565b5b600182019050919050565b60008190508160005260206000209050919050565b60006020601f8301049050919050565b600082821b905092915050565b6000600883026118067fffffffffffffffffffffffffffffffffffffffffffffffffffffffffffffffff826117c9565b61181086836117c9565b95508019841693508086168417925050509392505050565b6000819050919050565b600061184d61184861184384610e0a565b611828565b610e0a565b9050919050565b6000819050919050565b61186783611832565b61187b61187382611854565b8484546117d6565b825550505050565b600090565b611890611883565b61189b81848461185e565b505050565b5b818110156118bf576118b4600082611888565b6001810190506118a1565b5050565b601f821115611904576118d5816117a4565b6118de846117b9565b810160208510156118ed578190505b6119016118f9856117b9565b8301826118a0565b50505b505050565b600082821c905092915050565b600061192760001984600802611909565b1980831691505092915050565b60006119408383611916565b9150826002028217905092915050565b6119598261104f565b67ffffffffffffffff811115611972576119716113c3565b5b61197c82546116fc565b6119878282856118c3565b600060209050601f8311600181146119ba57600084156119a8578287015190505b6119b28582611934565b865550611a1a565b601f1984166119c8866117a4565b60005b828110156119f0578489015182556001820191506020850194506020810190506119cb565b86831015611a0d5784890151611a09601f891682611916565b8355505b6001600288020188555050505b505050505050565b6000606082019050611a376000830186610fdc565b8181036020830152611a4981856110a6565b9050611a586040830184610f56565b94935050505056fea26469706673582212209562b63d5a9dd498f0115d89a526a8a62229aea587a33d90689eb7f786dc8a3464736f6c634300081c0033",
  "linkReferences": {},
  "deployedLinkReferences": {}
}