{
  "_format": "hh-sol-artifact-1",
  "contractName": "SupplyChain",
  "sourceName": "contracts/SupplyChain.sol",
  "abi": [
    {
      "anonymous": false,
      "inputs": [
        {
          "indexed": false,
          "internalType": "uint256",
          "name": "id",
          "type": "uint256"
        },
        {
          "indexed": false,
          "internalType": "string",
          "name": "name",
          "type": "string"
        },
        {
          "indexed": false,
          "internalType": "address",
          "name": "owner",
          "type": "address"
        }
      ],
      "name": "ProductCreated",
      "type": "event"
    },
    {
      "anonymous": false,
      "inputs": [
        {
          "indexed": false,
          "internalType": "uint256",
          "name": "id",
          "type": "uint256"
        },
        {
          "indexed": false,
          "internalType": "address",
          "name": "from",
          "type": "address"
        },
        {
          "indexed": false,
          "internalType": "address",
          "name": "to",
          "type": "address"
        },
        {
          "indexed": false,
          "internalType": "enum SupplyChain.Status",
          "name": "status",
          "type": "uint8"
        }
      ],
      "name": "ProductTransferred",
      "type": "event"
    },
    {
      "anonymous": false,
      "inputs": [
        {
          "indexed": false,
          "internalType": "uint256",
          "name": "id",
          "type": "uint256"
        },
        {
          "indexed": false,
          "internalType": "address",
          "name": "supplier",
          "type": "address"
        },
        {
          "indexed": false,
          "internalType": "address",
          "name": "manufacturer",
          "type": "address"
        },
        {
          "indexed": false,
          "internalType": "string",
          "name": "name",
          "type": "string"
        },
        {
          "indexed": false,
          "internalType": "uint256",
          "name": "quantity",
          "type": "uint256"
        },
        {
          "indexed": false,
          "internalType": "string",
          "name": "lat",
          "type": "string"
        },
        {
          "indexed": false,
          "internalType": "string",
          "name": "long",
          "type": "string"
        }
      ],
      "name": "RawMaterialSupplied",
      "type": "event"
    },
    {
      "anonymous": false,
      "inputs": [
        {
          "indexed": false,
          "internalType": "string",
          "name": "role",
          "type": "string"
        },
        {
          "indexed": false,
          "internalType": "address",
          "name": "account",
          "type": "address"
        }
      ],
      "name": "RoleGranted",
      "type": "event"
    },
    {
      "inputs": [
        {
          "internalType": "address",
          "name": "_account",
          "type": "address"
        }
      ],
      "name": "addManufacturer",
      "outputs": [],
      "stateMutability": "nonpayable",
      "type": "function"
    },
    {
      "inputs": [
        {
          "internalType": "address",
          "name": "_account",
          "type": "address"
        }
      ],
      "name": "addRawMaterialSupplier",
      "outputs": [],
      "stateMutability": "nonpayable",
      "type": "function"
    },
    {
      "inputs": [
        {
          "internalType": "address",
          "name": "_account",
          "type": "address"
        }
      ],
      "name": "addRetailer",
      "outputs": [],
      "stateMutability": "nonpayable",
      "type": "function"
    },
    {
      "inputs": [
        {
          "internalType": "address",
          "name": "_account",
          "type": "address"
        }
      ],
      "name": "addSupplier",
      "outputs": [],
      "stateMutability": "nonpayable",
      "type": "function"
    },
    {
      "inputs": [
        {
          "internalType": "address",
          "name": "_account",
          "type": "address"
        }
      ],
      "name": "addWarehouse",
      "outputs": [],
      "stateMutability": "nonpayable",
      "type": "function"
    },
    {
      "inputs": [
        {
          "internalType": "string",
          "name": "_name",
          "type": "string"
        },
        {
          "internalType": "string",
          "name": "_batchId",
          "type": "string"
        },
        {
          "internalType": "string",
          "name": "_ipfsHash",
          "type": "string"
        },
        {
          "internalType": "uint256[]",
          "name": "_materialIds",
          "type": "uint256[]"
        },
        {
          "internalType": "uint256[]",
          "name": "_quantities",
          "type": "uint256[]"
        },
        {
          "internalType": "string",
          "name": "_lat",
          "type": "string"
        },
        {
          "internalType": "string",
          "name": "_long",
          "type": "string"
        }
      ],
      "name": "createProduct",
      "outputs": [
        {
          "internalType": "uint256",
          "name": "",
          "type": "uint256"
        }
      ],
      "stateMutability": "nonpayable",
      "type": "function"
    },
    {
      "inputs": [
        {
          "internalType": "address",
          "name": "_manufacturer",
          "type": "address"
        },
        {
          "internalType": "uint256",
          "name": "_materialId",
          "type": "uint256"
        }
      ],
      "name": "getCheckStock",
      "outputs": [
        {
          "internalType": "uint256",
          "name": "",
          "type": "uint256"
        }
      ],
      "stateMutability": "view",
      "type": "function"
    },
    {
      "inputs": [
        {
          "internalType": "uint256",
          "name": "_id",
          "type": "uint256"
        }
      ],
      "name": "getHistory",
      "outputs": [
        {
          "components": [
            {
              "internalType": "address",
              "name": "owner",
              "type": "address"
            },
            {
              "internalType": "enum SupplyChain.Status",
              "name": "status",
              "type": "uint8"
            },
            {
              "internalType": "uint256",
              "name": "timestamp",
              "type": "uint256"
            },
            {
              "internalType": "string",
              "name": "lat",
              "type": "string"
            },
            {
              "internalType": "string",
              "name": "long",
              "type": "string"
            }
          ],
          "internalType": "struct SupplyChain.History[]",
          "name": "",
          "type": "tuple[]"
        }
      ],
      "stateMutability": "view",
      "type": "function"
    },
    {
      "inputs": [
        {
          "internalType": "uint256",
          "name": "_id",
          "type": "uint256"
        }
      ],
      "name": "getProduct",
      "outputs": [
        {
          "components": [
            {
              "internalType": "uint256",
              "name": "id",
              "type": "uint256"
            },
            {
              "internalType": "string",
              "name": "name",
              "type": "string"
            },
            {
              "internalType": "string",
              "name": "batchId",
              "type": "string"
            },
            {
              "internalType": "address",
              "name": "currentOwner",
              "type": "address"
            },
            {
              "internalType": "enum SupplyChain.Status",
              "name": "status",
              "type": "uint8"
            },
            {
              "internalType": "uint256",
              "name": "timestamp",
              "type": "uint256"
            },
            {
              "internalType": "string",
              "name": "ipfsHash",
              "type": "string"
            }
          ],
          "internalType": "struct SupplyChain.Product",
          "name": "",
          "type": "tuple"
        }
      ],
      "stateMutability": "view",
      "type": "function"
    },
    {
      "inputs": [
        {
          "internalType": "uint256",
          "name": "_productId",
          "type": "uint256"
        }
      ],
      "name": "getProductRawMaterials",
      "outputs": [
        {
          "components": [
            {
              "internalType": "uint256",
              "name": "materialId",
              "type": "uint256"
            },
            {
              "internalType": "uint256",
              "name": "quantity",
              "type": "uint256"
            }
          ],
          "internalType": "struct SupplyChain.RawMaterialUsed[]",
          "name": "",
          "type": "tuple[]"
        }
      ],
      "stateMutability": "view",
      "type": "function"
    },
    {
      "inputs": [
        {
          "internalType": "uint256",
          "name": "_id",
          "type": "uint256"
        }
      ],
      "name": "getRawMaterial",
      "outputs": [
        {
          "components": [
            {
              "internalType": "uint256",
              "name": "id",
              "type": "uint256"
            },
            {
              "internalType": "string",
              "name": "name",
              "type": "string"
            },
            {
              "internalType": "address",
              "name": "supplier",
              "type": "address"
            },
            {
              "internalType": "string",
              "name": "certificateHash",
              "type": "string"
            },
            {
              "internalType": "string",
              "name": "lat",
              "type": "string"
            },
            {
              "internalType": "string",
              "name": "long",
              "type": "string"
            }
          ],
          "internalType": "struct SupplyChain.RawMaterial",
          "name": "",
          "type": "tuple"
        }
      ],
      "stateMutability": "view",
      "type": "function"
    },
    {
      "inputs": [
        {
          "internalType": "address",
          "name": "",
          "type": "address"
        },
        {
          "internalType": "uint256",
          "name": "",
          "type": "uint256"
        }
      ],
      "name": "manufacturerRawMaterialBalance",
      "outputs": [
        {
          "internalType": "uint256",
          "name": "",
          "type": "uint256"
        }
      ],
      "stateMutability": "view",
      "type": "function"
    },
    {
      "inputs": [
        {
          "internalType": "address",
          "name": "",
          "type": "address"
        }
      ],
      "name": "manufacturers",
      "outputs": [
        {
          "internalType": "bool",
          "name": "",
          "type": "bool"
        }
      ],
      "stateMutability": "view",
      "type": "function"
    },
    {
      "inputs": [],
      "name": "productCount",
      "outputs": [
        {
          "internalType": "uint256",
          "name": "",
          "type": "uint256"
        }
      ],
      "stateMutability": "view",
      "type": "function"
    },
    {
      "inputs": [
        {
          "internalType": "uint256",
          "name": "",
          "type": "uint256"
        },
        {
          "internalType": "uint256",
          "name": "",
          "type": "uint256"
        }
      ],
      "name": "productHistory",
      "outputs": [
        {
          "internalType": "address",
          "name": "owner",
          "type": "address"
        },
        {
          "internalType": "enum SupplyChain.Status",
          "name": "status",
          "type": "uint8"
        },
        {
          "internalType": "uint256",
          "name": "timestamp",
          "type": "uint256"
        },
        {
          "internalType": "string",
          "name": "lat",
          "type": "string"
        },
        {
          "internalType": "string",
          "name": "long",
          "type": "string"
        }
      ],
      "stateMutability": "view",
      "type": "function"
    },
    {
      "inputs": [
        {
          "internalType": "uint256",
          "name": "",
          "type": "uint256"
        },
        {
          "internalType": "uint256",
          "name": "",
          "type": "uint256"
        }
      ],
      "name": "productRawMaterials",
      "outputs": [
        {
          "internalType": "uint256",
          "name": "materialId",
          "type": "uint256"
        },
        {
          "internalType": "uint256",
          "name": "quantity",
          "type": "uint256"
        }
      ],
      "stateMutability": "view",
      "type": "function"
    },
    {
      "inputs": [
        {
          "internalType": "uint256",
          "name": "",
          "type": "uint256"
        }
      ],
      "name": "products",
      "outputs": [
        {
          "internalType": "uint256",
          "name": "id",
          "type": "uint256"
        },
        {
          "internalType": "string",
          "name": "name",
          "type": "string"
        },
        {
          "internalType": "string",
          "name": "batchId",
          "type": "string"
        },
        {
          "internalType": "address",
          "name": "currentOwner",
          "type": "address"
        },
        {
          "internalType": "enum SupplyChain.Status",
          "name": "status",
          "type": "uint8"
        },
        {
          "internalType": "uint256",
          "name": "timestamp",
          "type": "uint256"
        },
        {
          "internalType": "string",
          "name": "ipfsHash",
          "type": "string"
        }
      ],
      "stateMutability": "view",
      "type": "function"
    },
    {
      "inputs": [],
      "name": "rawMaterialCount",
      "outputs": [
        {
          "internalType": "uint256",
          "name": "",
          "type": "uint256"
        }
      ],
      "stateMutability": "view",
      "type": "function"
    },
    {
      "inputs": [
        {
          "internalType": "address",
          "name": "",
          "type": "address"
        }
      ],
      "name": "rawMaterialSuppliers",
      "outputs": [
        {
          "internalType": "bool",
          "name": "",
          "type": "bool"
        }
      ],
      "stateMutability": "view",
      "type": "function"
    },
    {
      "inputs": [
        {
          "internalType": "uint256",
          "name": "",
          "type": "uint256"
        }
      ],
      "name": "rawMaterials",
      "outputs": [
        {
          "internalType": "uint256",
          "name": "id",
          "type": "uint256"
        },
        {
          "internalType": "string",
          "name": "name",
          "type": "string"
        },
        {
          "internalType": "address",
          "name": "supplier",
          "type": "address"
        },
        {
          "internalType": "string",
          "name": "certificateHash",
          "type": "string"
        },
        {
          "internalType": "string",
          "name": "lat",
          "type": "string"
        },
        {
          "internalType": "string",
          "name": "long",
          "type": "string"
        }
      ],
      "stateMutability": "view",
      "type": "function"
    },
    {
      "inputs": [
        {
          "internalType": "address",
          "name": "",
          "type": "address"
        }
      ],
      "name": "retailers",
      "outputs": [
        {
          "internalType": "bool",
          "name": "",
          "type": "bool"
        }
      ],
      "stateMutability": "view",
      "type": "function"
    },
    {
      "inputs": [
        {
          "internalType": "address",
          "name": "",
          "type": "address"
        }
      ],
      "name": "suppliers",
      "outputs": [
        {
          "internalType": "bool",
          "name": "",
          "type": "bool"
        }
      ],
      "stateMutability": "view",
      "type": "function"
    },
    {
      "inputs": [
        {
          "internalType": "address",
          "name": "_manufacturer",
          "type": "address"
        },
        {
          "internalType": "string",
          "name": "_name",
          "type": "string"
        },
        {
          "internalType": "uint256",
          "name": "_quantity",
          "type": "uint256"
        },
        {
          "internalType": "string",
          "name": "_certificate",
          "type": "string"
        },
        {
          "internalType": "string",
          "name": "_lat",
          "type": "string"
        },
        {
          "internalType": "string",
          "name": "_long",
          "type": "string"
        }
      ],
      "name": "supplyRawMaterial",
      "outputs": [],
      "stateMutability": "nonpayable",
      "type": "function"
    },
    {
      "inputs": [
        {
          "internalType": "uint256",
          "name": "_id",
          "type": "uint256"
        },
        {
          "internalType": "address",
          "name": "_newOwner",
          "type": "address"
        },
        {
          "internalType": "enum SupplyChain.Status",
          "name": "_status",
          "type": "uint8"
        },
        {
          "internalType": "string",
          "name": "_lat",
          "type": "string"
        },
        {
          "internalType": "string",
          "name": "_long",
          "type": "string"
        }
      ],
      "name": "transferProduct",
      "outputs": [],
      "stateMutability": "nonpayable",
      "type": "function"
    },
    {
      "inputs": [
        {
          "internalType": "address",
          "name": "",
          "type": "address"
        }
      ],
      "name": "warehouses",
      "outputs": [
        {
          "internalType": "bool",
          "name": "",
          "type": "bool"
        }
      ],
      "stateMutability": "view",
      "type": "function"
    }
  ],
  "bytecode": "0x6080604052348015600f57600080fd5b50613a878061001f6000396000f3fe608060405234801561001057600080fd5b50600436106101735760003560e01c80636b7ae525116100de5780639a268f3511610097578063b9db15b411610071578063b9db15b4146104da578063c1de34121461050a578063c8691b2a1461053a578063e0f6ef871461056a57610173565b80639a268f351461045e5780639b43bc3e1461048e578063a4c6d8fe146104aa57610173565b80636b7ae525146103725780637683929f146103a25780637acc0b20146103c0578063814f696e146103f65780638805bdf7146104125780638ec4f5051461044257610173565b80633c0e25a4116101305780633c0e25a4146102895780633d5422c4146102a5578063581d3556146102da5780635cb93e84146102f65780635f8a5afa146103265780636b5eb09c1461034257610173565b80630bd24a3d146101785780631312af10146101a857806316dc15fe146101d857806317df4745146102085780631ae3ec15146102245780633a7d237614610255575b600080fd5b610192600480360381019061018d9190612379565b610588565b60405161019f91906123c1565b60405180910390f35b6101c260048036038101906101bd9190612620565b6105a8565b6040516101cf9190612795565b60405180910390f35b6101f260048036038101906101ed9190612379565b610add565b6040516101ff91906123c1565b60405180910390f35b610222600480360381019061021d9190612379565b610afd565b005b61023e600480360381019061023991906127b0565b610b8f565b60405161024c9291906127f0565b60405180910390f35b61026f600480360381019061026a91906127b0565b610bd0565b60405161028095949392919061291e565b60405180910390f35b6102a3600480360381019061029e9190612379565b610d60565b005b6102bf60048036038101906102ba919061297f565b610df2565b6040516102d1969594939291906129ac565b60405180910390f35b6102f460048036038101906102ef9190612a29565b61106e565b005b610310600480360381019061030b919061297f565b611242565b60405161031d9190612c2c565b60405180910390f35b610340600480360381019061033b9190612379565b611517565b005b61035c60048036038101906103579190612379565b6115a9565b60405161036991906123c1565b60405180910390f35b61038c60048036038101906103879190612c4e565b6115c9565b6040516103999190612795565b60405180910390f35b6103aa611624565b6040516103b79190612795565b60405180910390f35b6103da60048036038101906103d5919061297f565b61162a565b6040516103ed9796959493929190612c8e565b60405180910390f35b610410600480360381019061040b9190612379565b611831565b005b61042c60048036038101906104279190612379565b6118c3565b60405161043991906123c1565b60405180910390f35b61045c60048036038101906104579190612379565b6118e3565b005b61047860048036038101906104739190612379565b611975565b60405161048591906123c1565b60405180910390f35b6104a860048036038101906104a39190612d37565b611995565b005b6104c460048036038101906104bf9190612c4e565b611ced565b6040516104d19190612795565b60405180910390f35b6104f460048036038101906104ef919061297f565b611d12565b6040516105019190612ea3565b60405180910390f35b610524600480360381019061051f919061297f565b611f99565b6040516105319190612fa3565b60405180910390f35b610554600480360381019061054f919061297f565b61201f565b6040516105619190613104565b60405180910390f35b610572612250565b60405161057f9190612795565b60405180910390f35b60066020528060005260406000206000915054906101000a900460ff1681565b600083518551146105ee576040517f08c379a00000000000000000000000000000000000000000000000000000000081526004016105e590613172565b60405180910390fd5b60005b855181101561074157600086828151811061060f5761060e613192565b5b60200260200101519050600086838151811061062e5761062d613192565b5b6020026020010151905080600360003373ffffffffffffffffffffffffffffffffffffffff1673ffffffffffffffffffffffffffffffffffffffff16815260200190815260200160002060008481526020019081526020016000205410156106cb576040517f08c379a00000000000000000000000000000000000000000000000000000000081526004016106c290613233565b60405180910390fd5b80600360003373ffffffffffffffffffffffffffffffffffffffff1673ffffffffffffffffffffffffffffffffffffffff1681526020019081526020016000206000848152602001908152602001600020600082825461072b9190613282565b92505081905550505080806001019150506105f1565b50600a6000815480929190610755906132b6565b91905055506040518060e00160405280600a5481526020018981526020018881526020013373ffffffffffffffffffffffffffffffffffffffff168152602001600060048111156107a9576107a8612828565b5b815260200142815260200187815250600080600a5481526020019081526020016000206000820151816000015560208201518160010190816107eb919061350a565b506040820151816002019081610801919061350a565b5060608201518160030160006101000a81548173ffffffffffffffffffffffffffffffffffffffff021916908373ffffffffffffffffffffffffffffffffffffffff16021790555060808201518160030160146101000a81548160ff0219169083600481111561087457610873612828565b5b021790555060a0820151816004015560c0820151816005019081610898919061350a565b5090505060016000600a5481526020019081526020016000206040518060a001604052803373ffffffffffffffffffffffffffffffffffffffff168152602001600060048111156108ec576108eb612828565b5b815260200142815260200185815260200184815250908060018154018082558091505060019003906000526020600020906004020160009091909190915060008201518160000160006101000a81548173ffffffffffffffffffffffffffffffffffffffff021916908373ffffffffffffffffffffffffffffffffffffffff16021790555060208201518160000160146101000a81548160ff0219169083600481111561099c5761099b612828565b5b02179055506040820151816001015560608201518160020190816109c0919061350a565b5060808201518160030190816109d6919061350a565b50505060005b8551811015610a8f5760046000600a5481526020019081526020016000206040518060400160405280888481518110610a1857610a17613192565b5b60200260200101518152602001878481518110610a3857610a37613192565b5b602002602001015181525090806001815401808255809150506001900390600052602060002090600202016000909190919091506000820151816000015560208201518160010155505080806001019150506109dc565b507faf6ffb6277511513e7d579327cc1fc57f0266df2fb11a60b13487b8c9cd2c388600a548933604051610ac5939291906135dc565b60405180910390a1600a549050979650505050505050565b60086020528060005260406000206000915054906101000a900460ff1681565b6001600860008373ffffffffffffffffffffffffffffffffffffffff1673ffffffffffffffffffffffffffffffffffffffff16815260200190815260200160002060006101000a81548160ff0219169083151502179055507f606c98545793c0df614e4a07a49270302c92a296bcdbcf571aaae6655540af9981604051610b849190613666565b60405180910390a150565b60046020528160005260406000208181548110610bab57600080fd5b9060005260206000209060020201600091509150508060000154908060010154905082565b60016020528160005260406000208181548110610bec57600080fd5b9060005260206000209060040201600091509150508060000160009054906101000a900473ffffffffffffffffffffffffffffffffffffffff16908060000160149054906101000a900460ff1690806001015490806002018054610c4f9061332d565b80601f0160208091040260200160405190810160405280929190818152602001828054610c7b9061332d565b8015610cc85780601f10610c9d57610100808354040283529160200191610cc8565b820191906000526020600020905b815481529060010190602001808311610cab57829003601f168201915b505050505090806003018054610cdd9061332d565b80601f0160208091040260200160405190810160405280929190818152602001828054610d099061332d565b8015610d565780601f10610d2b57610100808354040283529160200191610d56565b820191906000526020600020905b815481529060010190602001808311610d3957829003601f168201915b5050505050905085565b6001600660008373ffffffffffffffffffffffffffffffffffffffff1673ffffffffffffffffffffffffffffffffffffffff16815260200190815260200160002060006101000a81548160ff0219169083151502179055507f606c98545793c0df614e4a07a49270302c92a296bcdbcf571aaae6655540af9981604051610de791906136e0565b60405180910390a150565b6002602052806000526040600020600091509050806000015490806001018054610e1b9061332d565b80601f0160208091040260200160405190810160405280929190818152602001828054610e479061332d565b8015610e945780601f10610e6957610100808354040283529160200191610e94565b820191906000526020600020905b815481529060010190602001808311610e7757829003601f168201915b5050505050908060020160009054906101000a900473ffffffffffffffffffffffffffffffffffffffff1690806003018054610ecf9061332d565b80601f0160208091040260200160405190810160405280929190818152602001828054610efb9061332d565b8015610f485780601f10610f1d57610100808354040283529160200191610f48565b820191906000526020600020905b815481529060010190602001808311610f2b57829003601f168201915b505050505090806004018054610f5d9061332d565b80601f0160208091040260200160405190810160405280929190818152602001828054610f899061332d565b8015610fd65780601f10610fab57610100808354040283529160200191610fd6565b820191906000526020600020905b815481529060010190602001808311610fb957829003601f168201915b505050505090806005018054610feb9061332d565b80601f01602080910402602001604051908101604052809291908181526020018280546110179061332d565b80156110645780601f1061103957610100808354040283529160200191611064565b820191906000526020600020905b81548152906001019060200180831161104757829003601f168201915b5050505050905086565b600b6000815480929190611081906132b6565b91905055506040518060c00160405280600b5481526020018681526020013373ffffffffffffffffffffffffffffffffffffffff1681526020018481526020018381526020018281525060026000600b5481526020019081526020016000206000820151816000015560208201518160010190816110ff919061350a565b5060408201518160020160006101000a81548173ffffffffffffffffffffffffffffffffffffffff021916908373ffffffffffffffffffffffffffffffffffffffff160217905550606082015181600301908161115c919061350a565b506080820151816004019081611172919061350a565b5060a0820151816005019081611188919061350a565b5090505083600360008873ffffffffffffffffffffffffffffffffffffffff1673ffffffffffffffffffffffffffffffffffffffff1681526020019081526020016000206000600b54815260200190815260200160002060008282546111ee919061370e565b925050819055507fbe8aeae9616d13a5c6820106a23c4880498302b856d1706d48e8986b4e822959600b543388888887876040516112329796959493929190613742565b60405180910390a1505050505050565b61124a612256565b600260008381526020019081526020016000206040518060c0016040529081600082015481526020016001820180546112829061332d565b80601f01602080910402602001604051908101604052809291908181526020018280546112ae9061332d565b80156112fb5780601f106112d0576101008083540402835291602001916112fb565b820191906000526020600020905b8154815290600101906020018083116112de57829003601f168201915b505050505081526020016002820160009054906101000a900473ffffffffffffffffffffffffffffffffffffffff1673ffffffffffffffffffffffffffffffffffffffff1673ffffffffffffffffffffffffffffffffffffffff16815260200160038201805461136a9061332d565b80601f01602080910402602001604051908101604052809291908181526020018280546113969061332d565b80156113e35780601f106113b8576101008083540402835291602001916113e3565b820191906000526020600020905b8154815290600101906020018083116113c657829003601f168201915b505050505081526020016004820180546113fc9061332d565b80601f01602080910402602001604051908101604052809291908181526020018280546114289061332d565b80156114755780601f1061144a57610100808354040283529160200191611475565b820191906000526020600020905b81548152906001019060200180831161145857829003601f168201915b5050505050815260200160058201805461148e9061332d565b80601f01602080910402602001604051908101604052809291908181526020018280546114ba9061332d565b80156115075780601f106114dc57610100808354040283529160200191611507565b820191906000526020600020905b8154815290600101906020018083116114ea57829003601f168201915b5050505050815250509050919050565b6001600560008373ffffffffffffffffffffffffffffffffffffffff1673ffffffffffffffffffffffffffffffffffffffff16815260200190815260200160002060006101000a81548160ff0219169083151502179055507f606c98545793c0df614e4a07a49270302c92a296bcdbcf571aaae6655540af998160405161159e9190613812565b60405180910390a150565b60056020528060005260406000206000915054906101000a900460ff1681565b6000600360008473ffffffffffffffffffffffffffffffffffffffff1673ffffffffffffffffffffffffffffffffffffffff168152602001908152602001600020600083815260200190815260200160002054905092915050565b600b5481565b60006020528060005260406000206000915090508060000154908060010180546116539061332d565b80601f016020809104026020016040519081016040528092919081815260200182805461167f9061332d565b80156116cc5780601f106116a1576101008083540402835291602001916116cc565b820191906000526020600020905b8154815290600101906020018083116116af57829003601f168201915b5050505050908060020180546116e19061332d565b80601f016020809104026020016040519081016040528092919081815260200182805461170d9061332d565b801561175a5780601f1061172f5761010080835404028352916020019161175a565b820191906000526020600020905b81548152906001019060200180831161173d57829003601f168201915b5050505050908060030160009054906101000a900473ffffffffffffffffffffffffffffffffffffffff16908060030160149054906101000a900460ff16908060040154908060050180546117ae9061332d565b80601f01602080910402602001604051908101604052809291908181526020018280546117da9061332d565b80156118275780601f106117fc57610100808354040283529160200191611827565b820191906000526020600020905b81548152906001019060200180831161180a57829003601f168201915b5050505050905087565b6001600760008373ffffffffffffffffffffffffffffffffffffffff1673ffffffffffffffffffffffffffffffffffffffff16815260200190815260200160002060006101000a81548160ff0219169083151502179055507f606c98545793c0df614e4a07a49270302c92a296bcdbcf571aaae6655540af99816040516118b8919061388c565b60405180910390a150565b60076020528060005260406000206000915054906101000a900460ff1681565b6001600960008373ffffffffffffffffffffffffffffffffffffffff1673ffffffffffffffffffffffffffffffffffffffff16815260200190815260200160002060006101000a81548160ff0219169083151502179055507f606c98545793c0df614e4a07a49270302c92a296bcdbcf571aaae6655540af998160405161196a9190613906565b60405180910390a150565b60096020528060005260406000206000915054906101000a900460ff1681565b6000851180156119a75750600a548511155b6119e6576040517f08c379a00000000000000000000000000000000000000000000000000000000081526004016119dd90613980565b60405180910390fd5b3373ffffffffffffffffffffffffffffffffffffffff1660008087815260200190815260200160002060030160009054906101000a900473ffffffffffffffffffffffffffffffffffffffff1673ffffffffffffffffffffffffffffffffffffffff1614611a89576040517f08c379a0000000000000000000000000000000000000000000000000000000008152600401611a80906139ec565b60405180910390fd5b600080600087815260200190815260200160002060030160009054906101000a900473ffffffffffffffffffffffffffffffffffffffff1690508460008088815260200190815260200160002060030160006101000a81548173ffffffffffffffffffffffffffffffffffffffff021916908373ffffffffffffffffffffffffffffffffffffffff1602179055508360008088815260200190815260200160002060030160146101000a81548160ff02191690836004811115611b4f57611b4e612828565b5b02179055504260008088815260200190815260200160002060040181905550600160008781526020019081526020016000206040518060a001604052808773ffffffffffffffffffffffffffffffffffffffff168152602001866004811115611bbb57611bba612828565b5b815260200142815260200185815260200184815250908060018154018082558091505060019003906000526020600020906004020160009091909190915060008201518160000160006101000a81548173ffffffffffffffffffffffffffffffffffffffff021916908373ffffffffffffffffffffffffffffffffffffffff16021790555060208201518160000160146101000a81548160ff02191690836004811115611c6b57611c6a612828565b5b0217905550604082015181600101556060820151816002019081611c8f919061350a565b506080820151816003019081611ca5919061350a565b5050507fb8ec5bed6096f539515867ed6d75eac9421558314f8dcb1349f7c60978cad29886828787604051611cdd9493929190613a0c565b60405180910390a1505050505050565b6003602052816000526040600020602052806000526040600020600091509150505481565b611d1a6122a2565b6000808381526020019081526020016000206040518060e001604052908160008201548152602001600182018054611d519061332d565b80601f0160208091040260200160405190810160405280929190818152602001828054611d7d9061332d565b8015611dca5780601f10611d9f57610100808354040283529160200191611dca565b820191906000526020600020905b815481529060010190602001808311611dad57829003601f168201915b50505050508152602001600282018054611de39061332d565b80601f0160208091040260200160405190810160405280929190818152602001828054611e0f9061332d565b8015611e5c5780601f10611e3157610100808354040283529160200191611e5c565b820191906000526020600020905b815481529060010190602001808311611e3f57829003601f168201915b505050505081526020016003820160009054906101000a900473ffffffffffffffffffffffffffffffffffffffff1673ffffffffffffffffffffffffffffffffffffffff1673ffffffffffffffffffffffffffffffffffffffff1681526020016003820160149054906101000a900460ff166004811115611ee057611edf612828565b5b6004811115611ef257611ef1612828565b5b815260200160048201548152602001600582018054611f109061332d565b80601f0160208091040260200160405190810160405280929190818152602001828054611f3c9061332d565b8015611f895780601f10611f5e57610100808354040283529160200191611f89565b820191906000526020600020905b815481529060010190602001808311611f6c57829003601f168201915b5050505050815250509050919050565b606060046000838152602001908152602001600020805480602002602001604051908101604052809291908181526020016000905b8282101561201457838290600052602060002090600202016040518060400160405290816000820154815260200160018201548152505081526020019060010190611fce565b505050509050919050565b606060016000838152602001908152602001600020805480602002602001604051908101604052809291908181526020016000905b8282101561224557838290600052602060002090600402016040518060a00160405290816000820160009054906101000a900473ffffffffffffffffffffffffffffffffffffffff1673ffffffffffffffffffffffffffffffffffffffff1673ffffffffffffffffffffffffffffffffffffffff1681526020016000820160149054906101000a900460ff1660048111156120f2576120f1612828565b5b600481111561210457612103612828565b5b8152602001600182015481526020016002820180546121229061332d565b80601f016020809104026020016040519081016040528092919081815260200182805461214e9061332d565b801561219b5780601f106121705761010080835404028352916020019161219b565b820191906000526020600020905b81548152906001019060200180831161217e57829003601f168201915b505050505081526020016003820180546121b49061332d565b80601f01602080910402602001604051908101604052809291908181526020018280546121e09061332d565b801561222d5780601f106122025761010080835404028352916020019161222d565b820191906000526020600020905b81548152906001019060200180831161221057829003601f168201915b50505050508152505081526020019060010190612054565b505050509050919050565b600a5481565b6040518060c001604052806000815260200160608152602001600073ffffffffffffffffffffffffffffffffffffffff1681526020016060815260200160608152602001606081525090565b6040518060e00160405280600081526020016060815260200160608152602001600073ffffffffffffffffffffffffffffffffffffffff168152602001600060048111156122f3576122f2612828565b5b815260200160008152602001606081525090565b6000604051905090565b600080fd5b600080fd5b600073ffffffffffffffffffffffffffffffffffffffff82169050919050565b60006123468261231b565b9050919050565b6123568161233b565b811461236157600080fd5b50565b6000813590506123738161234d565b92915050565b60006020828403121561238f5761238e612311565b5b600061239d84828501612364565b91505092915050565b60008115159050919050565b6123bb816123a6565b82525050565b60006020820190506123d660008301846123b2565b92915050565b600080fd5b600080fd5b6000601f19601f8301169050919050565b7f4e487b7100000000000000000000000000000000000000000000000000000000600052604160045260246000fd5b61242f826123e6565b810181811067ffffffffffffffff8211171561244e5761244d6123f7565b5b80604052505050565b6000612461612307565b905061246d8282612426565b919050565b600067ffffffffffffffff82111561248d5761248c6123f7565b5b612496826123e6565b9050602081019050919050565b82818337600083830152505050565b60006124c56124c084612472565b612457565b9050828152602081018484840111156124e1576124e06123e1565b5b6124ec8482856124a3565b509392505050565b600082601f830112612509576125086123dc565b5b81356125198482602086016124b2565b91505092915050565b600067ffffffffffffffff82111561253d5761253c6123f7565b5b602082029050602081019050919050565b600080fd5b6000819050919050565b61256681612553565b811461257157600080fd5b50565b6000813590506125838161255d565b92915050565b600061259c61259784612522565b612457565b905080838252602082019050602084028301858111156125bf576125be61254e565b5b835b818110156125e857806125d48882612574565b8452602084019350506020810190506125c1565b5050509392505050565b600082601f830112612607576126066123dc565b5b8135612617848260208601612589565b91505092915050565b600080600080600080600060e0888a03121561263f5761263e612311565b5b600088013567ffffffffffffffff81111561265d5761265c612316565b5b6126698a828b016124f4565b975050602088013567ffffffffffffffff81111561268a57612689612316565b5b6126968a828b016124f4565b965050604088013567ffffffffffffffff8111156126b7576126b6612316565b5b6126c38a828b016124f4565b955050606088013567ffffffffffffffff8111156126e4576126e3612316565b5b6126f08a828b016125f2565b945050608088013567ffffffffffffffff81111561271157612710612316565b5b61271d8a828b016125f2565b93505060a088013567ffffffffffffffff81111561273e5761273d612316565b5b61274a8a828b016124f4565b92505060c088013567ffffffffffffffff81111561276b5761276a612316565b5b6127778a828b016124f4565b91505092959891949750929550565b61278f81612553565b82525050565b60006020820190506127aa6000830184612786565b92915050565b600080604083850312156127c7576127c6612311565b5b60006127d585828601612574565b92505060206127e685828601612574565b9150509250929050565b60006040820190506128056000830185612786565b6128126020830184612786565b9392505050565b6128228161233b565b82525050565b7f4e487b7100000000000000000000000000000000000000000000000000000000600052602160045260246000fd5b6005811061286857612867612828565b5b50565b600081905061287982612857565b919050565b60006128898261286b565b9050919050565b6128998161287e565b82525050565b600081519050919050565b600082825260208201905092915050565b60005b838110156128d95780820151818401526020810190506128be565b60008484015250505050565b60006128f08261289f565b6128fa81856128aa565b935061290a8185602086016128bb565b612913816123e6565b840191505092915050565b600060a0820190506129336000830188612819565b6129406020830187612890565b61294d6040830186612786565b818103606083015261295f81856128e5565b9050818103608083015261297381846128e5565b90509695505050505050565b60006020828403121561299557612994612311565b5b60006129a384828501612574565b91505092915050565b600060c0820190506129c16000830189612786565b81810360208301526129d381886128e5565b90506129e26040830187612819565b81810360608301526129f481866128e5565b90508181036080830152612a0881856128e5565b905081810360a0830152612a1c81846128e5565b9050979650505050505050565b60008060008060008060c08789031215612a4657612a45612311565b5b6000612a5489828a01612364565b965050602087013567ffffffffffffffff811115612a7557612a74612316565b5b612a8189828a016124f4565b9550506040612a9289828a01612574565b945050606087013567ffffffffffffffff811115612ab357612ab2612316565b5b612abf89828a016124f4565b935050608087013567ffffffffffffffff811115612ae057612adf612316565b5b612aec89828a016124f4565b92505060a087013567ffffffffffffffff811115612b0d57612b0c612316565b5b612b1989828a016124f4565b9150509295509295509295565b612b2f81612553565b82525050565b600082825260208201905092915050565b6000612b518261289f565b612b5b8185612b35565b9350612b6b8185602086016128bb565b612b74816123e6565b840191505092915050565b612b888161233b565b82525050565b600060c083016000830151612ba66000860182612b26565b5060208301518482036020860152612bbe8282612b46565b9150506040830151612bd36040860182612b7f565b5060608301518482036060860152612beb8282612b46565b91505060808301518482036080860152612c058282612b46565b91505060a083015184820360a0860152612c1f8282612b46565b9150508091505092915050565b60006020820190508181036000830152612c468184612b8e565b905092915050565b60008060408385031215612c6557612c64612311565b5b6000612c7385828601612364565b9250506020612c8485828601612574565b9150509250929050565b600060e082019050612ca3600083018a612786565b8181036020830152612cb581896128e5565b90508181036040830152612cc981886128e5565b9050612cd86060830187612819565b612ce56080830186612890565b612cf260a0830185612786565b81810360c0830152612d0481846128e5565b905098975050505050505050565b60058110612d1f57600080fd5b50565b600081359050612d3181612d12565b92915050565b600080600080600060a08688031215612d5357612d52612311565b5b6000612d6188828901612574565b9550506020612d7288828901612364565b9450506040612d8388828901612d22565b935050606086013567ffffffffffffffff811115612da457612da3612316565b5b612db0888289016124f4565b925050608086013567ffffffffffffffff811115612dd157612dd0612316565b5b612ddd888289016124f4565b9150509295509295909350565b612df38161287e565b82525050565b600060e083016000830151612e116000860182612b26565b5060208301518482036020860152612e298282612b46565b91505060408301518482036040860152612e438282612b46565b9150506060830151612e586060860182612b7f565b506080830151612e6b6080860182612dea565b5060a0830151612e7e60a0860182612b26565b5060c083015184820360c0860152612e968282612b46565b9150508091505092915050565b60006020820190508181036000830152612ebd8184612df9565b905092915050565b600081519050919050565b600082825260208201905092915050565b6000819050602082019050919050565b604082016000820151612f076000850182612b26565b506020820151612f1a6020850182612b26565b50505050565b6000612f2c8383612ef1565b60408301905092915050565b6000602082019050919050565b6000612f5082612ec5565b612f5a8185612ed0565b9350612f6583612ee1565b8060005b83811015612f96578151612f7d8882612f20565b9750612f8883612f38565b925050600181019050612f69565b5085935050505092915050565b60006020820190508181036000830152612fbd8184612f45565b905092915050565b600081519050919050565b600082825260208201905092915050565b6000819050602082019050919050565b600060a0830160008301516130096000860182612b7f565b50602083015161301c6020860182612dea565b50604083015161302f6040860182612b26565b50606083015184820360608601526130478282612b46565b915050608083015184820360808601526130618282612b46565b9150508091505092915050565b600061307a8383612ff1565b905092915050565b6000602082019050919050565b600061309a82612fc5565b6130a48185612fd0565b9350836020820285016130b685612fe1565b8060005b858110156130f257848403895281516130d3858261306e565b94506130de83613082565b925060208a019950506001810190506130ba565b50829750879550505050505092915050565b6000602082019050818103600083015261311e818461308f565b905092915050565b7f4d69736d61746368656420696e70757473000000000000000000000000000000600082015250565b600061315c6011836128aa565b915061316782613126565b602082019050919050565b6000602082019050818103600083015261318b8161314f565b9050919050565b7f4e487b7100000000000000000000000000000000000000000000000000000000600052603260045260246000fd5b7f496e73756666696369656e7420726177206d6174657269616c2062616c616e6360008201527f6500000000000000000000000000000000000000000000000000000000000000602082015250565b600061321d6021836128aa565b9150613228826131c1565b604082019050919050565b6000602082019050818103600083015261324c81613210565b9050919050565b7f4e487b7100000000000000000000000000000000000000000000000000000000600052601160045260246000fd5b600061328d82612553565b915061329883612553565b92508282039050818111156132b0576132af613253565b5b92915050565b60006132c182612553565b91507fffffffffffffffffffffffffffffffffffffffffffffffffffffffffffffffff82036132f3576132f2613253565b5b600182019050919050565b7f4e487b7100000000000000000000000000000000000000000000000000000000600052602260045260246000fd5b6000600282049050600182168061334557607f821691505b602082108103613358576133576132fe565b5b50919050565b60008190508160005260206000209050919050565b60006020601f8301049050919050565b600082821b905092915050565b6000600883026133c07fffffffffffffffffffffffffffffffffffffffffffffffffffffffffffffffff82613383565b6133ca8683613383565b95508019841693508086168417925050509392505050565b6000819050919050565b60006134076134026133fd84612553565b6133e2565b612553565b9050919050565b6000819050919050565b613421836133ec565b61343561342d8261340e565b848454613390565b825550505050565b600090565b61344a61343d565b613455818484613418565b505050565b5b818110156134795761346e600082613442565b60018101905061345b565b5050565b601f8211156134be5761348f8161335e565b61349884613373565b810160208510156134a7578190505b6134bb6134b385613373565b83018261345a565b50505b505050565b600082821c905092915050565b60006134e1600019846008026134c3565b1980831691505092915050565b60006134fa83836134d0565b9150826002028217905092915050565b6135138261289f565b67ffffffffffffffff81111561352c5761352b6123f7565b5b613536825461332d565b61354182828561347d565b600060209050601f8311600181146135745760008415613562578287015190505b61356c85826134ee565b8655506135d4565b601f1984166135828661335e565b60005b828110156135aa57848901518255600182019150602085019450602081019050613585565b868310156135c757848901516135c3601f8916826134d0565b8355505b6001600288020188555050505b505050505050565b60006060820190506135f16000830186612786565b818103602083015261360381856128e5565b90506136126040830184612819565b949350505050565b7f537570706c696572000000000000000000000000000000000000000000000000600082015250565b60006136506008836128aa565b915061365b8261361a565b602082019050919050565b6000604082019050818103600083015261367f81613643565b905061368e6020830184612819565b92915050565b7f5261774d6174657269616c537570706c69657200000000000000000000000000600082015250565b60006136ca6013836128aa565b91506136d582613694565b602082019050919050565b600060408201905081810360008301526136f9816136bd565b90506137086020830184612819565b92915050565b600061371982612553565b915061372483612553565b925082820190508082111561373c5761373b613253565b5b92915050565b600060e082019050613757600083018a612786565b6137646020830189612819565b6137716040830188612819565b818103606083015261378381876128e5565b90506137926080830186612786565b81810360a08301526137a481856128e5565b905081810360c08301526137b881846128e5565b905098975050505050505050565b7f4d616e7566616374757265720000000000000000000000000000000000000000600082015250565b60006137fc600c836128aa565b9150613807826137c6565b602082019050919050565b6000604082019050818103600083015261382b816137ef565b905061383a6020830184612819565b92915050565b7f57617265686f7573650000000000000000000000000000000000000000000000600082015250565b60006138766009836128aa565b915061388182613840565b602082019050919050565b600060408201905081810360008301526138a581613869565b90506138b46020830184612819565b92915050565b7f52657461696c6572000000000000000000000000000000000000000000000000600082015250565b60006138f06008836128aa565b91506138fb826138ba565b602082019050919050565b6000604082019050818103600083015261391f816138e3565b905061392e6020830184612819565b92915050565b7f496e76616c69642070726f647563742049440000000000000000000000000000600082015250565b600061396a6012836128aa565b915061397582613934565b602082019050919050565b600060208201905081810360008301526139998161395d565b9050919050565b7f4e6f7420746865206f776e657200000000000000000000000000000000000000600082015250565b60006139d6600d836128aa565b91506139e1826139a0565b602082019050919050565b60006020820190508181036000830152613a05816139c9565b9050919050565b6000608082019050613a216000830187612786565b613a2e6020830186612819565b613a3b6040830185612819565b613a486060830184612890565b9594505050505056fea2646970667358221220d35b7d56a41144d87e5307ffea57dd2263c150965a5833018b507327ffce79be64736f6c634300081c0033",
  "linkReferences": {},
  "deployedLinkReferences": {}
}